{
  "fileName": "testToken.sol",
  "contractName": "testToken",
  "source": "pragma solidity ^0.5.0;\n\nimport \"@openzeppelin/contracts-ethereum-package/contracts/token/ERC20/StandaloneERC20.sol\";\n\ncontract testToken is StandaloneERC20 {\n\n    event OurTransfer(address from, address to, uint256 value, string memo);\n\n    function ourTransferFrom(address sender, address recipient, uint256 amount, string memory memo) public {\n        transferFrom(sender, recipient, amount);\n        emit OurTransfer(sender, recipient, amount, memo);\n    }\n}",
  "sourcePath": "contracts/testToken.sol",
  "abi": [
    {
      "constant": true,
      "inputs": [],
      "name": "name",
      "outputs": [
        {
          "name": "",
          "type": "string"
        }
      ],
      "payable": false,
      "stateMutability": "view",
      "type": "function"
    },
    {
      "constant": false,
      "inputs": [
        {
          "name": "spender",
          "type": "address"
        },
        {
          "name": "value",
          "type": "uint256"
        }
      ],
      "name": "approve",
      "outputs": [
        {
          "name": "",
          "type": "bool"
        }
      ],
      "payable": false,
      "stateMutability": "nonpayable",
      "type": "function"
    },
    {
      "constant": false,
      "inputs": [
        {
          "name": "name",
          "type": "string"
        },
        {
          "name": "symbol",
          "type": "string"
        },
        {
          "name": "decimals",
          "type": "uint8"
        }
      ],
      "name": "initialize",
      "outputs": [],
      "payable": false,
      "stateMutability": "nonpayable",
      "type": "function"
    },
    {
      "constant": true,
      "inputs": [],
      "name": "totalSupply",
      "outputs": [
        {
          "name": "",
          "type": "uint256"
        }
      ],
      "payable": false,
      "stateMutability": "view",
      "type": "function"
    },
    {
      "constant": false,
      "inputs": [
        {
          "name": "from",
          "type": "address"
        },
        {
          "name": "to",
          "type": "address"
        },
        {
          "name": "value",
          "type": "uint256"
        }
      ],
      "name": "transferFrom",
      "outputs": [
        {
          "name": "",
          "type": "bool"
        }
      ],
      "payable": false,
      "stateMutability": "nonpayable",
      "type": "function"
    },
    {
      "constant": false,
      "inputs": [
        {
          "name": "name",
          "type": "string"
        },
        {
          "name": "symbol",
          "type": "string"
        },
        {
          "name": "decimals",
          "type": "uint8"
        },
        {
          "name": "minters",
          "type": "address[]"
        },
        {
          "name": "pausers",
          "type": "address[]"
        }
      ],
      "name": "initialize",
      "outputs": [],
      "payable": false,
      "stateMutability": "nonpayable",
      "type": "function"
    },
    {
      "constant": true,
      "inputs": [],
      "name": "decimals",
      "outputs": [
        {
          "name": "",
          "type": "uint8"
        }
      ],
      "payable": false,
      "stateMutability": "view",
      "type": "function"
    },
    {
      "constant": false,
      "inputs": [
        {
          "name": "spender",
          "type": "address"
        },
        {
          "name": "addedValue",
          "type": "uint256"
        }
      ],
      "name": "increaseAllowance",
      "outputs": [
        {
          "name": "",
          "type": "bool"
        }
      ],
      "payable": false,
      "stateMutability": "nonpayable",
      "type": "function"
    },
    {
      "constant": false,
      "inputs": [],
      "name": "unpause",
      "outputs": [],
      "payable": false,
      "stateMutability": "nonpayable",
      "type": "function"
    },
    {
      "constant": false,
      "inputs": [
        {
          "name": "account",
          "type": "address"
        },
        {
          "name": "amount",
          "type": "uint256"
        }
      ],
      "name": "mint",
      "outputs": [
        {
          "name": "",
          "type": "bool"
        }
      ],
      "payable": false,
      "stateMutability": "nonpayable",
      "type": "function"
    },
    {
      "constant": true,
      "inputs": [
        {
          "name": "account",
          "type": "address"
        }
      ],
      "name": "isPauser",
      "outputs": [
        {
          "name": "",
          "type": "bool"
        }
      ],
      "payable": false,
      "stateMutability": "view",
      "type": "function"
    },
    {
      "constant": false,
      "inputs": [
        {
          "name": "name",
          "type": "string"
        },
        {
          "name": "symbol",
          "type": "string"
        },
        {
          "name": "decimals",
          "type": "uint8"
        },
        {
          "name": "initialSupply",
          "type": "uint256"
        },
        {
          "name": "initialHolder",
          "type": "address"
        },
        {
          "name": "minters",
          "type": "address[]"
        },
        {
          "name": "pausers",
          "type": "address[]"
        }
      ],
      "name": "initialize",
      "outputs": [],
      "payable": false,
      "stateMutability": "nonpayable",
      "type": "function"
    },
    {
      "constant": true,
      "inputs": [],
      "name": "paused",
      "outputs": [
        {
          "name": "",
          "type": "bool"
        }
      ],
      "payable": false,
      "stateMutability": "view",
      "type": "function"
    },
    {
      "constant": false,
      "inputs": [],
      "name": "renouncePauser",
      "outputs": [],
      "payable": false,
      "stateMutability": "nonpayable",
      "type": "function"
    },
    {
      "constant": true,
      "inputs": [
        {
          "name": "account",
          "type": "address"
        }
      ],
      "name": "balanceOf",
      "outputs": [
        {
          "name": "",
          "type": "uint256"
        }
      ],
      "payable": false,
      "stateMutability": "view",
      "type": "function"
    },
    {
      "constant": false,
      "inputs": [
        {
          "name": "account",
          "type": "address"
        }
      ],
      "name": "addPauser",
      "outputs": [],
      "payable": false,
      "stateMutability": "nonpayable",
      "type": "function"
    },
    {
      "constant": false,
      "inputs": [],
      "name": "pause",
      "outputs": [],
      "payable": false,
      "stateMutability": "nonpayable",
      "type": "function"
    },
    {
      "constant": true,
      "inputs": [],
      "name": "symbol",
      "outputs": [
        {
          "name": "",
          "type": "string"
        }
      ],
      "payable": false,
      "stateMutability": "view",
      "type": "function"
    },
    {
      "constant": false,
      "inputs": [
        {
          "name": "account",
          "type": "address"
        }
      ],
      "name": "addMinter",
      "outputs": [],
      "payable": false,
      "stateMutability": "nonpayable",
      "type": "function"
    },
    {
      "constant": false,
      "inputs": [],
      "name": "renounceMinter",
      "outputs": [],
      "payable": false,
      "stateMutability": "nonpayable",
      "type": "function"
    },
    {
      "constant": false,
      "inputs": [
        {
          "name": "spender",
          "type": "address"
        },
        {
          "name": "subtractedValue",
          "type": "uint256"
        }
      ],
      "name": "decreaseAllowance",
      "outputs": [
        {
          "name": "",
          "type": "bool"
        }
      ],
      "payable": false,
      "stateMutability": "nonpayable",
      "type": "function"
    },
    {
      "constant": false,
      "inputs": [
        {
          "name": "to",
          "type": "address"
        },
        {
          "name": "value",
          "type": "uint256"
        }
      ],
      "name": "transfer",
      "outputs": [
        {
          "name": "",
          "type": "bool"
        }
      ],
      "payable": false,
      "stateMutability": "nonpayable",
      "type": "function"
    },
    {
      "constant": true,
      "inputs": [
        {
          "name": "account",
          "type": "address"
        }
      ],
      "name": "isMinter",
      "outputs": [
        {
          "name": "",
          "type": "bool"
        }
      ],
      "payable": false,
      "stateMutability": "view",
      "type": "function"
    },
    {
      "constant": false,
      "inputs": [
        {
          "name": "sender",
          "type": "address"
        }
      ],
      "name": "initialize",
      "outputs": [],
      "payable": false,
      "stateMutability": "nonpayable",
      "type": "function"
    },
    {
      "constant": true,
      "inputs": [
        {
          "name": "owner",
          "type": "address"
        },
        {
          "name": "spender",
          "type": "address"
        }
      ],
      "name": "allowance",
      "outputs": [
        {
          "name": "",
          "type": "uint256"
        }
      ],
      "payable": false,
      "stateMutability": "view",
      "type": "function"
    },
    {
      "constant": false,
      "inputs": [
        {
          "name": "sender",
          "type": "address"
        },
        {
          "name": "recipient",
          "type": "address"
        },
        {
          "name": "amount",
          "type": "uint256"
        },
        {
          "name": "memo",
          "type": "string"
        }
      ],
      "name": "ourTransferFrom",
      "outputs": [],
      "payable": false,
      "stateMutability": "nonpayable",
      "type": "function"
    },
    {
      "anonymous": false,
      "inputs": [
        {
          "indexed": false,
          "name": "from",
          "type": "address"
        },
        {
          "indexed": false,
          "name": "to",
          "type": "address"
        },
        {
          "indexed": false,
          "name": "value",
          "type": "uint256"
        },
        {
          "indexed": false,
          "name": "memo",
          "type": "string"
        }
      ],
      "name": "OurTransfer",
      "type": "event"
    },
    {
      "anonymous": false,
      "inputs": [
        {
          "indexed": false,
          "name": "account",
          "type": "address"
        }
      ],
      "name": "Paused",
      "type": "event"
    },
    {
      "anonymous": false,
      "inputs": [
        {
          "indexed": false,
          "name": "account",
          "type": "address"
        }
      ],
      "name": "Unpaused",
      "type": "event"
    },
    {
      "anonymous": false,
      "inputs": [
        {
          "indexed": true,
          "name": "account",
          "type": "address"
        }
      ],
      "name": "PauserAdded",
      "type": "event"
    },
    {
      "anonymous": false,
      "inputs": [
        {
          "indexed": true,
          "name": "account",
          "type": "address"
        }
      ],
      "name": "PauserRemoved",
      "type": "event"
    },
    {
      "anonymous": false,
      "inputs": [
        {
          "indexed": true,
          "name": "account",
          "type": "address"
        }
      ],
      "name": "MinterAdded",
      "type": "event"
    },
    {
      "anonymous": false,
      "inputs": [
        {
          "indexed": true,
          "name": "account",
          "type": "address"
        }
      ],
      "name": "MinterRemoved",
      "type": "event"
    },
    {
      "anonymous": false,
      "inputs": [
        {
          "indexed": true,
          "name": "from",
          "type": "address"
        },
        {
          "indexed": true,
          "name": "to",
          "type": "address"
        },
        {
          "indexed": false,
          "name": "value",
          "type": "uint256"
        }
      ],
      "name": "Transfer",
      "type": "event"
    },
    {
      "anonymous": false,
      "inputs": [
        {
          "indexed": true,
          "name": "owner",
          "type": "address"
        },
        {
          "indexed": true,
          "name": "spender",
          "type": "address"
        },
        {
          "indexed": false,
          "name": "value",
          "type": "uint256"
        }
      ],
      "name": "Approval",
      "type": "event"
    }
  ],
  "bytecode": "0x60806040526135f6806100136000396000f3fe608060405234801561001057600080fd5b50600436106101ab576000357c0100000000000000000000000000000000000000000000000000000000900480636ef8d66d116100fb57806398650275116100b4578063aa271e1a1161008e578063aa271e1a14610d99578063c4d66de814610df5578063dd62ed3e14610e39578063fc4f442414610eb1576101ab565b80639865027514610cc3578063a457c2d714610ccd578063a9059cbb14610d33576101ab565b80636ef8d66d14610b4c57806370a0823114610b5657806382dc1ec414610bae5780638456cb5914610bf257806395d89b4114610bfc578063983b2d5614610c7f576101ab565b8063313ce5671161016857806340c10f191161014257806340c10f19146107b757806346fbf68e1461081d57806348be01c6146108795780635c975abb14610b2a576101ab565b8063313ce5671461072357806339509351146107475780633f4ba83a146107ad576101ab565b806306fdde03146101b0578063095ea7b3146102335780631624f6c61461029957806318160ddd146103f857806323b872dd1461041657806331392b4a1461049c575b600080fd5b6101b8610fb6565b6040518080602001828103825283818151815260200191508051906020019080838360005b838110156101f85780820151818401526020810190506101dd565b50505050905090810190601f1680156102255780820380516001836020036101000a031916815260200191505b509250505060405180910390f35b61027f6004803603604081101561024957600080fd5b81019080803573ffffffffffffffffffffffffffffffffffffffff16906020019092919080359060200190929190505050611058565b604051808215151515815260200191505060405180910390f35b6103f6600480360360608110156102af57600080fd5b81019080803590602001906401000000008111156102cc57600080fd5b8201836020820111156102de57600080fd5b8035906020019184600183028401116401000000008311171561030057600080fd5b91908080601f016020809104026020016040519081016040528093929190818152602001838380828437600081840152601f19601f8201169050808301925050505050505091929192908035906020019064010000000081111561036357600080fd5b82018360208201111561037557600080fd5b8035906020019184600183028401116401000000008311171561039757600080fd5b91908080601f016020809104026020016040519081016040528093929190818152602001838380828437600081840152601f19601f820116905080830192505050505050509192919290803560ff1690602001909291905050506110f2565b005b61040061123f565b6040518082815260200191505060405180910390f35b6104826004803603606081101561042c57600080fd5b81019080803573ffffffffffffffffffffffffffffffffffffffff169060200190929190803573ffffffffffffffffffffffffffffffffffffffff16906020019092919080359060200190929190505050611249565b604051808215151515815260200191505060405180910390f35b610721600480360360a08110156104b257600080fd5b81019080803590602001906401000000008111156104cf57600080fd5b8201836020820111156104e157600080fd5b8035906020019184600183028401116401000000008311171561050357600080fd5b91908080601f016020809104026020016040519081016040528093929190818152602001838380828437600081840152601f19601f8201169050808301925050505050505091929192908035906020019064010000000081111561056657600080fd5b82018360208201111561057857600080fd5b8035906020019184600183028401116401000000008311171561059a57600080fd5b91908080601f016020809104026020016040519081016040528093929190818152602001838380828437600081840152601f19601f820116905080830192505050505050509192919290803560ff1690602001909291908035906020019064010000000081111561060a57600080fd5b82018360208201111561061c57600080fd5b8035906020019184602083028401116401000000008311171561063e57600080fd5b919080806020026020016040519081016040528093929190818152602001838360200280828437600081840152601f19601f8201169050808301925050505050505091929192908035906020019064010000000081111561069e57600080fd5b8201836020820111156106b057600080fd5b803590602001918460208302840111640100000000831117156106d257600080fd5b919080806020026020016040519081016040528093929190818152602001838360200280828437600081840152601f19601f8201169050808301925050505050505091929192905050506112e5565b005b61072b611490565b604051808260ff1660ff16815260200191505060405180910390f35b6107936004803603604081101561075d57600080fd5b81019080803573ffffffffffffffffffffffffffffffffffffffff169060200190929190803590602001909291905050506114a7565b604051808215151515815260200191505060405180910390f35b6107b5611541565b005b610803600480360360408110156107cd57600080fd5b81019080803573ffffffffffffffffffffffffffffffffffffffff169060200190929190803590602001909291905050506116b5565b604051808215151515815260200191505060405180910390f35b61085f6004803603602081101561083357600080fd5b81019080803573ffffffffffffffffffffffffffffffffffffffff169060200190929190505050611732565b604051808215151515815260200191505060405180910390f35b610b28600480360360e081101561088f57600080fd5b81019080803590602001906401000000008111156108ac57600080fd5b8201836020820111156108be57600080fd5b803590602001918460018302840111640100000000831117156108e057600080fd5b91908080601f016020809104026020016040519081016040528093929190818152602001838380828437600081840152601f19601f8201169050808301925050505050505091929192908035906020019064010000000081111561094357600080fd5b82018360208201111561095557600080fd5b8035906020019184600183028401116401000000008311171561097757600080fd5b91908080601f016020809104026020016040519081016040528093929190818152602001838380828437600081840152601f19601f820116905080830192505050505050509192919290803560ff16906020019092919080359060200190929190803573ffffffffffffffffffffffffffffffffffffffff16906020019092919080359060200190640100000000811115610a1157600080fd5b820183602082011115610a2357600080fd5b80359060200191846020830284011164010000000083111715610a4557600080fd5b919080806020026020016040519081016040528093929190818152602001838360200280828437600081840152601f19601f82011690508083019250505050505050919291929080359060200190640100000000811115610aa557600080fd5b820183602082011115610ab757600080fd5b80359060200191846020830284011164010000000083111715610ad957600080fd5b919080806020026020016040519081016040528093929190818152602001838360200280828437600081840152601f19601f820116905080830192505050505050509192919290505050611750565b005b610b32611907565b604051808215151515815260200191505060405180910390f35b610b5461191f565b005b610b9860048036036020811015610b6c57600080fd5b81019080803573ffffffffffffffffffffffffffffffffffffffff169060200190929190505050611931565b6040518082815260200191505060405180910390f35b610bf060048036036020811015610bc457600080fd5b81019080803573ffffffffffffffffffffffffffffffffffffffff16906020019092919050505061197a565b005b610bfa6119ed565b005b610c04611b62565b6040518080602001828103825283818151815260200191508051906020019080838360005b83811015610c44578082015181840152602081019050610c29565b50505050905090810190601f168015610c715780820380516001836020036101000a031916815260200191505b509250505060405180910390f35b610cc160048036036020811015610c9557600080fd5b81019080803573ffffffffffffffffffffffffffffffffffffffff169060200190929190505050611c04565b005b610ccb611c77565b005b610d1960048036036040811015610ce357600080fd5b81019080803573ffffffffffffffffffffffffffffffffffffffff16906020019092919080359060200190929190505050611c89565b604051808215151515815260200191505060405180910390f35b610d7f60048036036040811015610d4957600080fd5b81019080803573ffffffffffffffffffffffffffffffffffffffff16906020019092919080359060200190929190505050611d23565b604051808215151515815260200191505060405180910390f35b610ddb60048036036020811015610daf57600080fd5b81019080803573ffffffffffffffffffffffffffffffffffffffff169060200190929190505050611dbd565b604051808215151515815260200191505060405180910390f35b610e3760048036036020811015610e0b57600080fd5b81019080803573ffffffffffffffffffffffffffffffffffffffff169060200190929190505050611dda565b005b610e9b60048036036040811015610e4f57600080fd5b81019080803573ffffffffffffffffffffffffffffffffffffffff169060200190929190803573ffffffffffffffffffffffffffffffffffffffff169060200190929190505050611ee5565b6040518082815260200191505060405180910390f35b610fb460048036036080811015610ec757600080fd5b81019080803573ffffffffffffffffffffffffffffffffffffffff169060200190929190803573ffffffffffffffffffffffffffffffffffffffff1690602001909291908035906020019092919080359060200190640100000000811115610f2e57600080fd5b820183602082011115610f4057600080fd5b80359060200191846001830284011164010000000083111715610f6257600080fd5b91908080601f016020809104026020016040519081016040528093929190818152602001838380828437600081840152601f19601f820116905080830192505050505050509192919290505050611f6c565b005b606060338054600181600116156101000203166002900480601f01602080910402602001604051908101604052809291908181526020018280546001816001161561010002031660029004801561104e5780601f106110235761010080835404028352916020019161104e565b820191906000526020600020905b81548152906001019060200180831161103157829003601f168201915b5050505050905090565b600061013560009054906101000a900460ff161515156110e0576040517f08c379a00000000000000000000000000000000000000000000000000000000081526004018080602001828103825260108152602001807f5061757361626c653a207061757365640000000000000000000000000000000081525060200191505060405180910390fd5b6110ea838361208a565b905092915050565b600060019054906101000a900460ff168061111157506111106120a8565b5b8061112857506000809054906101000a900460ff16155b151561117f576040517f08c379a000000000000000000000000000000000000000000000000000000000815260040180806020018281038252602e81526020018061352f602e913960400191505060405180910390fd5b60008060019054906101000a900460ff1615905080156111cf576001600060016101000a81548160ff02191690831515021790555060016000806101000a81548160ff0219169083151502179055505b83603390805190602001906111e5929190613353565b5082603490805190602001906111fc929190613353565b5081603560006101000a81548160ff021916908360ff16021790555080156112395760008060016101000a81548160ff0219169083151502179055505b50505050565b6000606a54905090565b600061013560009054906101000a900460ff161515156112d1576040517f08c379a00000000000000000000000000000000000000000000000000000000081526004018080602001828103825260108152602001807f5061757361626c653a207061757365640000000000000000000000000000000081525060200191505060405180910390fd5b6112dc8484846120bf565b90509392505050565b600060019054906101000a900460ff168061130457506113036120a8565b5b8061131b57506000809054906101000a900460ff16155b1515611372576040517f08c379a000000000000000000000000000000000000000000000000000000000815260040180806020018281038252602e81526020018061352f602e913960400191505060405180910390fd5b60008060019054906101000a900460ff1615905080156113c2576001600060016101000a81548160ff02191690831515021790555060016000806101000a81548160ff0219169083151502179055505b6113cd8686866110f2565b6113d630612199565b6113df306122a4565b6113e830611dda565b6113f1306122fe565b60008090505b835181101561142b57611420848281518110151561141157fe5b90602001906020020151612359565b8060010190506113f7565b5060008090505b82518110156114665761145b838281518110151561144c57fe5b906020019060200201516123b3565b806001019050611432565b5080156114885760008060016101000a81548160ff0219169083151502179055505b505050505050565b6000603560009054906101000a900460ff16905090565b600061013560009054906101000a900460ff1615151561152f576040517f08c379a00000000000000000000000000000000000000000000000000000000081526004018080602001828103825260108152602001807f5061757361626c653a207061757365640000000000000000000000000000000081525060200191505060405180910390fd5b611539838361240e565b905092915050565b61155161154c6124c1565b611732565b15156115a8576040517f08c379a000000000000000000000000000000000000000000000000000000000815260040180806020018281038252603081526020018061341c6030913960400191505060405180910390fd5b61013560009054906101000a900460ff16151561162d576040517f08c379a00000000000000000000000000000000000000000000000000000000081526004018080602001828103825260148152602001807f5061757361626c653a206e6f742070617573656400000000000000000000000081525060200191505060405180910390fd5b600061013560006101000a81548160ff0219169083151502179055507f5db9ee0a495bf2e6ff9c91a7834c1ba4fdd244a5e8aa4e537bd38aeae4b073aa6116726124c1565b604051808273ffffffffffffffffffffffffffffffffffffffff1673ffffffffffffffffffffffffffffffffffffffff16815260200191505060405180910390a1565b60006116c76116c26124c1565b611dbd565b151561171e576040517f08c379a00000000000000000000000000000000000000000000000000000000081526004018080602001828103825260308152602001806134946030913960400191505060405180910390fd5b61172883836124c9565b6001905092915050565b60006117498261010261268890919063ffffffff16565b9050919050565b600060019054906101000a900460ff168061176f575061176e6120a8565b5b8061178657506000809054906101000a900460ff16155b15156117dd576040517f08c379a000000000000000000000000000000000000000000000000000000000815260040180806020018281038252602e81526020018061352f602e913960400191505060405180910390fd5b60008060019054906101000a900460ff16159050801561182d576001600060016101000a81548160ff02191690831515021790555060016000806101000a81548160ff0219169083151502179055505b6118388888886110f2565b61184284866124c9565b61184b30612199565b611854306122a4565b61185d30611dda565b611866306122fe565b60008090505b83518110156118a057611895848281518110151561188657fe5b90602001906020020151612359565b80600101905061186c565b5060008090505b82518110156118db576118d083828151811015156118c157fe5b906020019060200201516123b3565b8060010190506118a7565b5080156118fd5760008060016101000a81548160ff0219169083151502179055505b5050505050505050565b600061013560009054906101000a900460ff16905090565b61192f61192a6124c1565b6122fe565b565b6000606860008373ffffffffffffffffffffffffffffffffffffffff1673ffffffffffffffffffffffffffffffffffffffff168152602001908152602001600020549050919050565b61198a6119856124c1565b611732565b15156119e1576040517f08c379a000000000000000000000000000000000000000000000000000000000815260040180806020018281038252603081526020018061341c6030913960400191505060405180910390fd5b6119ea816123b3565b50565b6119fd6119f86124c1565b611732565b1515611a54576040517f08c379a000000000000000000000000000000000000000000000000000000000815260040180806020018281038252603081526020018061341c6030913960400191505060405180910390fd5b61013560009054906101000a900460ff16151515611ada576040517f08c379a00000000000000000000000000000000000000000000000000000000081526004018080602001828103825260108152602001807f5061757361626c653a207061757365640000000000000000000000000000000081525060200191505060405180910390fd5b600161013560006101000a81548160ff0219169083151502179055507f62e78cea01bee320cd4e420270b5ea74000d11b0c9f74754ebdbfc544b05a258611b1f6124c1565b604051808273ffffffffffffffffffffffffffffffffffffffff1673ffffffffffffffffffffffffffffffffffffffff16815260200191505060405180910390a1565b606060348054600181600116156101000203166002900480601f016020809104026020016040519081016040528092919081815260200182805460018160011615610100020316600290048015611bfa5780601f10611bcf57610100808354040283529160200191611bfa565b820191906000526020600020905b815481529060010190602001808311611bdd57829003601f168201915b5050505050905090565b611c14611c0f6124c1565b611dbd565b1515611c6b576040517f08c379a00000000000000000000000000000000000000000000000000000000081526004018080602001828103825260308152602001806134946030913960400191505060405180910390fd5b611c7481612359565b50565b611c87611c826124c1565b6122a4565b565b600061013560009054906101000a900460ff16151515611d11576040517f08c379a00000000000000000000000000000000000000000000000000000000081526004018080602001828103825260108152602001807f5061757361626c653a207061757365640000000000000000000000000000000081525060200191505060405180910390fd5b611d1b8383612768565b905092915050565b600061013560009054906101000a900460ff16151515611dab576040517f08c379a00000000000000000000000000000000000000000000000000000000081526004018080602001828103825260108152602001807f5061757361626c653a207061757365640000000000000000000000000000000081525060200191505060405180910390fd5b611db58383612836565b905092915050565b6000611dd382609d61268890919063ffffffff16565b9050919050565b600060019054906101000a900460ff1680611df95750611df86120a8565b5b80611e1057506000809054906101000a900460ff16155b1515611e67576040517f08c379a000000000000000000000000000000000000000000000000000000000815260040180806020018281038252602e81526020018061352f602e913960400191505060405180910390fd5b60008060019054906101000a900460ff161590508015611eb7576001600060016101000a81548160ff02191690831515021790555060016000806101000a81548160ff0219169083151502179055505b611ec082612854565b8015611ee15760008060016101000a81548160ff0219169083151502179055505b5050565b6000606960008473ffffffffffffffffffffffffffffffffffffffff1673ffffffffffffffffffffffffffffffffffffffff16815260200190815260200160002060008373ffffffffffffffffffffffffffffffffffffffff1673ffffffffffffffffffffffffffffffffffffffff16815260200190815260200160002054905092915050565b611f77848484611249565b507fd3855cd6995566a04d885fdbd7e9f8a1fdcc5daf5026c79844e69b44da12aa0084848484604051808573ffffffffffffffffffffffffffffffffffffffff1673ffffffffffffffffffffffffffffffffffffffff1681526020018473ffffffffffffffffffffffffffffffffffffffff1673ffffffffffffffffffffffffffffffffffffffff16815260200183815260200180602001828103825283818151815260200191508051906020019080838360005b8381101561204757808201518184015260208101905061202c565b50505050905090810190601f1680156120745780820380516001836020036101000a031916815260200191505b509550505050505060405180910390a150505050565b600061209e6120976124c1565b848461297b565b6001905092915050565b6000803090506000813b9050600081149250505090565b60006120cc848484612b76565b61218e846120d86124c1565b61218985606060405190810160405280602881526020016134e560289139606960008b73ffffffffffffffffffffffffffffffffffffffff1673ffffffffffffffffffffffffffffffffffffffff168152602001908152602001600020600061213f6124c1565b73ffffffffffffffffffffffffffffffffffffffff1673ffffffffffffffffffffffffffffffffffffffff16815260200190815260200160002054612e359092919063ffffffff16565b61297b565b600190509392505050565b600060019054906101000a900460ff16806121b857506121b76120a8565b5b806121cf57506000809054906101000a900460ff16155b1515612226576040517f08c379a000000000000000000000000000000000000000000000000000000000815260040180806020018281038252602e81526020018061352f602e913960400191505060405180910390fd5b60008060019054906101000a900460ff161590508015612276576001600060016101000a81548160ff02191690831515021790555060016000806101000a81548160ff0219169083151502179055505b61227f82612ef7565b80156122a05760008060016101000a81548160ff0219169083151502179055505b5050565b6122b881609d61301290919063ffffffff16565b8073ffffffffffffffffffffffffffffffffffffffff167fe94479a9f7e1952cc78f2d6baab678adc1b772d936c6583def489e524cb6669260405160405180910390a250565b6123138161010261301290919063ffffffff16565b8073ffffffffffffffffffffffffffffffffffffffff167fcd265ebaf09df2871cc7bd4133404a235ba12eff2041bb89d9c714a2621c7c7e60405160405180910390a250565b61236d81609d6130d190919063ffffffff16565b8073ffffffffffffffffffffffffffffffffffffffff167f6ae172837ea30b801fbfcdd4108aa1d5bf8ff775444fd70256b44e6bf3dfc3f660405160405180910390a250565b6123c8816101026130d190919063ffffffff16565b8073ffffffffffffffffffffffffffffffffffffffff167f6719d08c1888103bea251a4ed56406bd0c3e69723c8a1686e017e7bbe159b6f860405160405180910390a250565b60006124b761241b6124c1565b846124b2856069600061242c6124c1565b73ffffffffffffffffffffffffffffffffffffffff1673ffffffffffffffffffffffffffffffffffffffff16815260200190815260200160002060008973ffffffffffffffffffffffffffffffffffffffff1673ffffffffffffffffffffffffffffffffffffffff168152602001908152602001600020546131ae90919063ffffffff16565b61297b565b6001905092915050565b600033905090565b600073ffffffffffffffffffffffffffffffffffffffff168273ffffffffffffffffffffffffffffffffffffffff161415151561256e576040517f08c379a000000000000000000000000000000000000000000000000000000000815260040180806020018281038252601f8152602001807f45524332303a206d696e7420746f20746865207a65726f20616464726573730081525060200191505060405180910390fd5b61258381606a546131ae90919063ffffffff16565b606a819055506125db81606860008573ffffffffffffffffffffffffffffffffffffffff1673ffffffffffffffffffffffffffffffffffffffff168152602001908152602001600020546131ae90919063ffffffff16565b606860008473ffffffffffffffffffffffffffffffffffffffff1673ffffffffffffffffffffffffffffffffffffffff168152602001908152602001600020819055508173ffffffffffffffffffffffffffffffffffffffff16600073ffffffffffffffffffffffffffffffffffffffff167fddf252ad1be2c89b69c2b068fc378daa952ba7f163c4a11628f55a4df523b3ef836040518082815260200191505060405180910390a35050565b60008073ffffffffffffffffffffffffffffffffffffffff168273ffffffffffffffffffffffffffffffffffffffff1614151515612711576040517f08c379a000000000000000000000000000000000000000000000000000000000815260040180806020018281038252602281526020018061350d6022913960400191505060405180910390fd5b8260000160008373ffffffffffffffffffffffffffffffffffffffff1673ffffffffffffffffffffffffffffffffffffffff16815260200190815260200160002060009054906101000a900460ff16905092915050565b600061282c6127756124c1565b8461282785606060405190810160405280602581526020016135a660259139606960006127a06124c1565b73ffffffffffffffffffffffffffffffffffffffff1673ffffffffffffffffffffffffffffffffffffffff16815260200190815260200160002060008a73ffffffffffffffffffffffffffffffffffffffff1673ffffffffffffffffffffffffffffffffffffffff16815260200190815260200160002054612e359092919063ffffffff16565b61297b565b6001905092915050565b600061284a6128436124c1565b8484612b76565b6001905092915050565b600060019054906101000a900460ff168061287357506128726120a8565b5b8061288a57506000809054906101000a900460ff16155b15156128e1576040517f08c379a000000000000000000000000000000000000000000000000000000000815260040180806020018281038252602e81526020018061352f602e913960400191505060405180910390fd5b60008060019054906101000a900460ff161590508015612931576001600060016101000a81548160ff02191690831515021790555060016000806101000a81548160ff0219169083151502179055505b61293a82613238565b600061013560006101000a81548160ff02191690831515021790555080156129775760008060016101000a81548160ff0219169083151502179055505b5050565b600073ffffffffffffffffffffffffffffffffffffffff168373ffffffffffffffffffffffffffffffffffffffff1614151515612a03576040517f08c379a00000000000000000000000000000000000000000000000000000000081526004018080602001828103825260248152602001806135826024913960400191505060405180910390fd5b600073ffffffffffffffffffffffffffffffffffffffff168273ffffffffffffffffffffffffffffffffffffffff1614151515612a8b576040517f08c379a000000000000000000000000000000000000000000000000000000000815260040180806020018281038252602281526020018061344c6022913960400191505060405180910390fd5b80606960008573ffffffffffffffffffffffffffffffffffffffff1673ffffffffffffffffffffffffffffffffffffffff16815260200190815260200160002060008473ffffffffffffffffffffffffffffffffffffffff1673ffffffffffffffffffffffffffffffffffffffff168152602001908152602001600020819055508173ffffffffffffffffffffffffffffffffffffffff168373ffffffffffffffffffffffffffffffffffffffff167f8c5be1e5ebec7d5bd14f71427d1e84f3dd0314c0f7b2291e5b200ac8c7c3b925836040518082815260200191505060405180910390a3505050565b600073ffffffffffffffffffffffffffffffffffffffff168373ffffffffffffffffffffffffffffffffffffffff1614151515612bfe576040517f08c379a000000000000000000000000000000000000000000000000000000000815260040180806020018281038252602581526020018061355d6025913960400191505060405180910390fd5b600073ffffffffffffffffffffffffffffffffffffffff168273ffffffffffffffffffffffffffffffffffffffff1614151515612c86576040517f08c379a00000000000000000000000000000000000000000000000000000000081526004018080602001828103825260238152602001806133f96023913960400191505060405180910390fd5b612cf3816060604051908101604052806026815260200161346e60269139606860008773ffffffffffffffffffffffffffffffffffffffff1673ffffffffffffffffffffffffffffffffffffffff16815260200190815260200160002054612e359092919063ffffffff16565b606860008573ffffffffffffffffffffffffffffffffffffffff1673ffffffffffffffffffffffffffffffffffffffff16815260200190815260200160002081905550612d8881606860008573ffffffffffffffffffffffffffffffffffffffff1673ffffffffffffffffffffffffffffffffffffffff168152602001908152602001600020546131ae90919063ffffffff16565b606860008473ffffffffffffffffffffffffffffffffffffffff1673ffffffffffffffffffffffffffffffffffffffff168152602001908152602001600020819055508173ffffffffffffffffffffffffffffffffffffffff168373ffffffffffffffffffffffffffffffffffffffff167fddf252ad1be2c89b69c2b068fc378daa952ba7f163c4a11628f55a4df523b3ef836040518082815260200191505060405180910390a3505050565b60008383111582901515612ee4576040517f08c379a00000000000000000000000000000000000000000000000000000000081526004018080602001828103825283818151815260200191508051906020019080838360005b83811015612ea9578082015181840152602081019050612e8e565b50505050905090810190601f168015612ed65780820380516001836020036101000a031916815260200191505b509250505060405180910390fd5b5060008385039050809150509392505050565b600060019054906101000a900460ff1680612f165750612f156120a8565b5b80612f2d57506000809054906101000a900460ff16155b1515612f84576040517f08c379a000000000000000000000000000000000000000000000000000000000815260040180806020018281038252602e81526020018061352f602e913960400191505060405180910390fd5b60008060019054906101000a900460ff161590508015612fd4576001600060016101000a81548160ff02191690831515021790555060016000806101000a81548160ff0219169083151502179055505b612fdd82611dbd565b1515612fed57612fec82612359565b5b801561300e5760008060016101000a81548160ff0219169083151502179055505b5050565b61301c8282612688565b1515613073576040517f08c379a00000000000000000000000000000000000000000000000000000000081526004018080602001828103825260218152602001806134c46021913960400191505060405180910390fd5b60008260000160008373ffffffffffffffffffffffffffffffffffffffff1673ffffffffffffffffffffffffffffffffffffffff16815260200190815260200160002060006101000a81548160ff0219169083151502179055505050565b6130db8282612688565b151515613150576040517f08c379a000000000000000000000000000000000000000000000000000000000815260040180806020018281038252601f8152602001807f526f6c65733a206163636f756e7420616c72656164792068617320726f6c650081525060200191505060405180910390fd5b60018260000160008373ffffffffffffffffffffffffffffffffffffffff1673ffffffffffffffffffffffffffffffffffffffff16815260200190815260200160002060006101000a81548160ff0219169083151502179055505050565b600080828401905083811015151561322e576040517f08c379a000000000000000000000000000000000000000000000000000000000815260040180806020018281038252601b8152602001807f536166654d6174683a206164646974696f6e206f766572666c6f77000000000081525060200191505060405180910390fd5b8091505092915050565b600060019054906101000a900460ff168061325757506132566120a8565b5b8061326e57506000809054906101000a900460ff16155b15156132c5576040517f08c379a000000000000000000000000000000000000000000000000000000000815260040180806020018281038252602e81526020018061352f602e913960400191505060405180910390fd5b60008060019054906101000a900460ff161590508015613315576001600060016101000a81548160ff02191690831515021790555060016000806101000a81548160ff0219169083151502179055505b61331e82611732565b151561332e5761332d826123b3565b5b801561334f5760008060016101000a81548160ff0219169083151502179055505b5050565b828054600181600116156101000203166002900490600052602060002090601f016020900481019282601f1061339457805160ff19168380011785556133c2565b828001600101855582156133c2579182015b828111156133c15782518255916020019190600101906133a6565b5b5090506133cf91906133d3565b5090565b6133f591905b808211156133f15760008160009055506001016133d9565b5090565b9056fe45524332303a207472616e7366657220746f20746865207a65726f2061646472657373506175736572526f6c653a2063616c6c657220646f6573206e6f742068617665207468652050617573657220726f6c6545524332303a20617070726f766520746f20746865207a65726f206164647265737345524332303a207472616e7366657220616d6f756e7420657863656564732062616c616e63654d696e746572526f6c653a2063616c6c657220646f6573206e6f74206861766520746865204d696e74657220726f6c65526f6c65733a206163636f756e7420646f6573206e6f74206861766520726f6c6545524332303a207472616e7366657220616d6f756e74206578636565647320616c6c6f77616e6365526f6c65733a206163636f756e7420697320746865207a65726f2061646472657373436f6e747261637420696e7374616e63652068617320616c7265616479206265656e20696e697469616c697a656445524332303a207472616e736665722066726f6d20746865207a65726f206164647265737345524332303a20617070726f76652066726f6d20746865207a65726f206164647265737345524332303a2064656372656173656420616c6c6f77616e63652062656c6f77207a65726fa165627a7a723058204672e0964d4fa5dc9e6d226416d399e2d4319648a51e5ae5820a42bf7bab1a600029",
  "compiler": {
    "name": "solc",
    "version": "0.5.3+commit.10d17f24.Emscripten.clang",
    "optimizer": {
      "enabled": false,
      "runs": 200
    },
    "evmVersion": "byzantium"
  }
}